:100000001DC037C073C11EC134C033C0F3C131C07D
:1000100030C098C12EC02DC02CC02BC02AC029C012
:1000200028C02FC226C025C024C023C022C021C0A2
:1000300020C01FC01EC01DC01CC01BC011241FBE7D
:10004000CFEFD2E0DEBFCDBF11E0A0E0B1E0EAE843
:10005000F6E002C005900D92A630B107D9F723E073
:10006000A6E0B1E001C01D92A235B207E1F795D23A
:100070000AC3C6CFC29ABA9A81E080930701089555
:100080008111F8CFC298BA98109207010895E091B3
:100090009102F0E0EE56FD4F8083809191028F5FD8
:1000A00080939102803C10F01092910208959091FB
:1000B000900280919102981771F0E92FF0E0EE56CE
:1000C000FD4F80819F5F903C18F4909390020895BB
:1000D00010929002089580E008959091900220EC93
:1000E000290FE92FF0E0EE56FD4F3081381741F02F
:1000F0009F5F30919102931729F02913F2CF02C02C
:1001000081E0089580E008959091910281E020912E
:100110009002291301C080E008951092910210927C
:1001200090020895E091CF01F0E0E053FE4F80830C
:100130008091CF018F5F8093CF01803C10F01092AF
:10014000CF0108959091CE018091CF01981771F061
:10015000E92FF0E0E053FE4F80819F5F903C18F460
:100160009093CE0108951092CE01089580E00895F5
:100170009091CE0120EC290FE92FF0E0E053FE4FE3
:100180003081381741F09F5F3091CF01931729F0EC
:100190002913F2CF02C081E0089580E00895909184
:1001A000CF0181E02091CE01291301C080E00895A4
:1001B0001092CF011092CE010895882379F0E0913A
:1001C0000D01F0E0E25FFE4F808380910D018F5FB3
:1001D00080930D01803C10F010920D0108959091D4
:1001E0000C0180910D01981771F0E92FF0E0E25FAA
:1001F000FE4F80819F5F903C18F490930C0108950E
:1002000010920C01089580E00895CF93909107011A
:100210009923B1F0D2DF80910801811111C0C1E0B2
:10022000C0930801DCDF80930901109202018091E4
:100230000901882329F012BE82E080BFC3BF89BFB5
:10024000CF9108951F920F920FB60F9211242F9302
:100250003F934F935F936F937F938F939F93EF930E
:1002600096B3917081E0892736B321E0E32FE270E5
:1002700031FD20E030910101482F50E0632F032E23
:10028000000C770B4617570751F4622F70E040912E
:100290000001042E000C550B64177507A9F0E1113D
:1002A00013C0911111C037FD0FC0311104C09091DE
:1002B00006019F5F07C090910001911105C09091C8
:1002C0000601915090930601809301012093000153
:1002D000EF919F918F917F916F915F914F913F919E
:1002E0002F910F900FBE0F901F9018951F920F9295
:1002F0000FB60F9211248F93CF990CC0979888E076
:100300008093040110920B011DBC1CBC82E08FBDC8
:100310008EBD8FB9C89910C0909888E08093030172
:1003200010920A011092C7001092C60082E08093DA
:10033000CA008093C90081BB8F910F900FBE0F90B0
:100340001F9018951F920F920FB60F9211242F93A2
:100350003F934F935F936F937F938F939F93AF934D
:10036000BF93EF93FF9312BE809102018823B1F0F7
:10037000809102018930A0F480910901409102012D
:10038000082E000C990B28E030E0241B310902C034
:10039000959587952A95E2F780FD06C0C29814C00E
:1003A000809102018B3010F4C29A0EC018DF809346
:1003B0000901109202018091090181110AC0109275
:1003C000080110BE13BE05C0809102018F5F8093AB
:1003D0000201FF91EF91BF91AF919F918F917F911A
:1003E0006F915F914F913F912F910F900FBE0F90A2
:1003F0001F9018951F920F920FB60F9211242F93F2
:100400003F934F935F936F937F938F939F93AF939C
:10041000BF93EF93FF931DBC1CBC809104018150DE
:1004200080930401CF9B11C08091040140910B0186
:1004300027E030E0281B310981E090E001C0880FFF
:100440002A95EAF7842B80930B0180910401811196
:1004500007C01FB81FBC1EBC979A80910B0117DE06
:10046000FF91EF91BF91AF919F918F917F916F918C
:100470005F914F913F912F910F900FBE0F901F9062
:1004800018951F920F920FB60F9211242F933F933E
:100490004F935F936F937F938F939F93AF93BF938C
:1004A000EF93FF931092C7001092C6008091030152
:1004B000815080930301C89B11C08091030140913A
:1004C0000A0127E030E0281B310981E090E001C0FB
:1004D000880F2A95EAF7842B80930A018091030103
:1004E000811109C011BA1092CA001092C900909AE5
:1004F00080910A0117DEFF91EF91BF91AF919F911B
:100500008F917F916F915F914F913F912F910F90BC
:100510000FBE0F901F9018959093820080938100DA
:1005200088E1809385008EE08093840008958FB7E2
:10053000F89424E630E03BBD2ABD1DBC1CBC2EE077
:1005400030E03093C5002093C4001092C700109291
:10055000C6009BE896BF8FBFD798D098B898B99837
:100560008CE090E0D9DF80E882BB909A83E080BD88
:1005700080E38BBF08958091860087FFFCCF809138
:10058000800008958091860080780895909186007B
:1005900095FFFCCF809380000895C9DF7894B4DD87
:1005A0008823B1F08AE099DD882391F080DD8432E0
:1005B00071F4ECDF7CDD8A3021F08D3011F0811197
:1005C000F8CF75DD8DE0E2DF8AE0E0DF01C0A5DD78
:1005D000E6DD8823B1F08AE0CBDD882391F080E46A
:1005E000D5DFB0DD882321F0D1DFACDD8A3031F4F6
:1005F000A9DD8DE0CBDF8AE0C9DF03C08D3091F744
:10060000F7CF8091860087FF1EC0B5DF863551F495
:10061000BDDF81E3BBDF80E3B9DF8DE0B7DF8AE0D8
:10062000B5DF11C0803439F48091860087FF0BC09C
:10063000A2DFEBDDF9CF833211F41CDD04C08E376D
:1006400011F480E01DDD80910601882309F4A7CF15
:100650008BE49CDF8091060187FF08C08DE296DF66
:100660008091060181958093060102C08BE28EDFA6
:1006700080910601805D8ADF8DE088DF8AE086DF79
:0A068000109206018CCFF894FFCF12
:06068A00FFFF0808080054
:00000001FF
