:100000001DC037C0D6C081C034C033C0ECC031C0C1
:1000100030C02FC02EC02DC02CC02BC02AC029C07C
:1000200028C027C026C025C024C023C022C021C0AC
:1000300020C01FC01EC01DC01CC01BC011241FBE7D
:10004000CFEFD2E0DEBFCDBF11E0A0E0B1E0E4E74A
:10005000F3E002C005900D92A430B107D9F722E079
:10006000A4E0B1E001C01D92A730B207E1F736D19C
:100070007FC1C6CFE0910701F0E0E85FFE4F8083CB
:10008000809107018F5F809307018F3F11F41092D9
:10009000070108959091060180910701981771F06A
:1000A000E92FF0E0E85FFE4F80819F5F9F3F19F0EE
:1000B00090930601089510920601089580E0089536
:1000C000909106012FEF290FE92FF0E0E85FFE4F36
:1000D0003081381741F09F5F30910701931729F065
:1000E0002913F2CF02C081E0089580E00895909135
:1000F000070181E020910601291301C080E00895E5
:10010000109207011092060108951F920F920FB6E8
:100110000F9211242F933F934F935F936F937F938D
:100120008F939F93EF9396B3917081E0892736B3B5
:1001300021E0E32FE27031FD20E030910101482FF2
:1001400050E0632F032E000C770B4617570751F42E
:10015000622F70E040910001042E000C550B6417D3
:100160007507A9F0E11113C0911111C037FD0FC03F
:10017000311104C0909104019F5F07C0909100016C
:10018000911105C0909104019150909304018093C6
:10019000010120930001EF919F918F917F916F91C9
:1001A0005F914F913F912F910F900FBE0F901F9035
:1001B00018951F920F920FB60F9211248F93CF991B
:1001C0000CC012BA88E080930201109205011DBC98
:1001D0001CBC82E08FBD8EBD8FB98F910F900FBE7A
:1001E0000F901F9018951F920F920FB60F92112427
:1001F0002F933F934F935F936F937F938F939F932F
:10020000AF93BF93EF93FF931DBC1CBC8091020181
:10021000815080930201CF9B11C0809102014091D7
:10022000050127E030E0281B310981E090E001C0A2
:10023000880F2A95EAF7842B8093050180910201AB
:10024000811108C01FB81FBC1EBC80E882BB809112
:10025000050110DFFF91EF91BF91AF919F918F91B9
:100260007F916F915F914F913F912F910F900FBEB2
:100270000F901F901895909382008093810088E1E1
:10028000809385008EE08093840008958FB7F89462
:1002900024E630E03BBD2ABD1DBC1CBC8FBFD798F7
:1002A000B898B9988CE090E0E6DF80E882BB83E004
:1002B00080BD80E38BBF08958091860087FFFCCFCF
:1002C00080918000089580918600807808959091B3
:1002D000860095FFFCCF809380000895D7DF789447
:1002E00006DF8823B1F08AE0EBDE882391F0D2DECE
:1002F000843271F4ECDFCEDE8A3021F08D3011F0E3
:100300008111F8CFC7DE8DE0E2DF8AE0E0DF01C0D7
:10031000F7DE8091860087FF0CC0CEDF863549F47A
:10032000D6DF80E3D4DF82E3D2DF8DE0D0DF8AE066
:10033000CEDF80910401882399F28BE4C8DF80919D
:10034000040187FF08C08DE2C2DF8091040181951E
:100350008093040102C08BE2BADF80910401805DCA
:10036000B6DF8DE0B4DF8AE0B2DF10920401B8CFCF
:04037000F894FFCF2F
:04037400FFFF08007F
:00000001FF
